:020000040800F2
:1000000000040020C10200089104000891040008C7
:10001000910400089104000891040008910400086C
:10002000910400089104000891040008C10400082C
:10003000910400089104000891040008910500084B
:10004000910400089104000891040008910400083C
:10005000910400089104000891040008910400082C
:10006000910400089104000891040008412100084F
:1000700071210008A1210008D121000801220008F7
:100080003122000861220008D12A000891040008EA
:1000900091040008910400089104000891040008EC
:1000A00091040008910400089104000891040008DC
:1000B00091040008910400089104000891040008CC
:1000C00091040008910400089104000891040008BC
:1000D00091040008910400089104000891040008AC
:1000E000910400089104000891040008910400089C
:1000F000910400089104000891040008912200086E
:1001000091040008A12E0008910400089104000841
:10011000910400089104000891040008910400086B
:10012000C1220008F1220008212300085123000801
:1001300081230008412C0008910400089104000864
:10014000910400089104000891040008814400080B
:10015000B1230008E12300081124000841450008EC
:10016000910400089104000891040008910400081B
:1001700091040008614400089104000891040008FB
:1001800091040008910400089104000891040008FB
:1001900091040008910400089104000891040008EB
:0C01A0009104000891040008910400087C
:1001B00010B582B000F03CFF2C4C00F059FA2C48EE
:1001C00001F04EFB2B492A4801F07AFBA36E9A6B93
:1001D00022F40020986340F2DC5000F089FC2046B5
:1001E000254901F0BDFCA46E2448A16B41F4002315
:1001F000A363002101F054FA2148002101F0D0F955
:100200004FF400600322C4F20200012103F070FAEF
:100210001C48002100F074FF02F002FD1A491B4A3D
:100220001848012300F07CFF00244FF47A7000F09E
:100230005FFC4FF4A8714022154B0094154800F064
:100240003FFC00941448154B4FF4E8717F2200F0F6
:1002500037FC4FF40064C4F20204626982F4005077
:1002600060614FF4FA7000F043FCF6E74031002083
:10027000F43800202054000830540008FC340020DA
:10028000F82E0020100A0020F053000880350020CE
:10029000F14B0008883B0020D83C0020814C00082E
:1002A000704700BFAFF30080AFF30080AFF3008072
:1002B000FEE700BFAFF30080AFF30080AFF3008034
:1002C00072B6644C84F30988022383F31488BFF365
:1002D0006F8F61486149884218D2CA1C051D531BA3
:1002E00023F00302034610184FF055318342196082
:1002F000C2F380020AD01AB185422B46296005D08C
:100300001D1D5960083383426960F9D15448A042E9
:1003100018D25449041D0A1B22F00305034628186D
:100320004FF0553183421960C5F380020AD01AB1EB
:1003300084422346216005D01D1D59600833834245
:100340006960F9D104F004FA4749484881421BD258
:10035000C61C0C1D321B464822F00302161D056800
:100360000423B3420D60C2F380020DD022B1456870
:100370000823B342256007D01A1D1D5884585D50CC
:100380000833B3428C50F7D13A483B49884217D2E0
:10039000CB1C041D1A1B22F003050346281800215C
:1003A00083421960C5F380020AD01AB18442234601
:1003B000216005D01D1D5960083383426960F9D161
:1003C000FFF76EFF2D4D2E498D421DD2CC1C2E1DE8
:1003D000A71BB808471C01242A6800EA04089047B4
:1003E000BC4211D0B8F1000F05D002243368984701
:1003F000BC42354608D0696888470234A8682E1D7B
:1004000080470835BC42F6D1FFF7D2FE1D4D1E4A8B
:1004100095421DD2D41C2E1DA71BBB085F1C0124B6
:10042000296803EA04088847BC4211D0B8F1000FDC
:1004300005D0022430688047BC42354608D06A683F
:1004400090470234AB682E1D98470835BC42F6D160
:10045000FFF72EFF0008002000000020000400200D
:1004600000040020030800200008002008080020E5
:10047000F854000808080020A83E0020AC0100083D
:10048000AC010008AC010008AC010008AFF300802B
:10049000FEE700BFAFF30080AFF30080AFF3008052
:1004A00072B6FEE7AFF30080AFF30080AFF30080D9
:1004B00000F096FA00DF00BFAFF30080AFF30080DA
:1004C000EFF30983203383F30988002383F3118832
:1004D000704700BFAFF30080AFF30080AFF3008040
:1004E00008B54FF46D43CEF200034FF44072C0F2F2
:1004F000FA520021996007201021DA6000F090F88C
:100500000A20202100F08CF80B208021BDE8084053
:1005100000F086B8AFF30080AFF30080AFF3008047
:10052000202383F311884FF46D43CEF20003586803
:1005300010F4006319D0EFF309834FF0807243F891
:10054000042CA3F1200181F309880E498A69096806
:10055000D07F8968926858B1914294BF00220122ED
:1005600062B1094A43F8082C704783F31188704739
:10057000914234BF00220122002AF2D1034843F8FD
:10058000080C704740090020B1040008B4040008BA
:1005900008B5202383F3118800F0A2F8002383F329
:1005A0001188BDE80840FFF7BBBF00BFAFF3008074
:1005B0002DE9F04FC1F80CD0D0F80CD0BDE8F08F89
:1005C000002383F311882846A04700F0C1FA704742
:1005D000F0B44FF461438408CEF20003C03400F05D
:1005E000030553F82470ED00FF26420906FA05F6CC
:1005F00027EA060601FA05F500F01F0002F1600780
:10060000012101FA00F02E4343F8246043F827004B
:1006100043F82200F0BC7047AFF30080AFF30080D6
:1006200082084FF46D43CEF20003063200F003005F
:1006300030B4C00053F82250FF2404FA00F425EA35
:10064000040401FA00F10C4343F8224030BC704727
:10065000024B034A98698261FEE700BF400900200F
:10066000E04F0008AFF30080AFF30080AFF30080ED
:1006700000B583B0FFF734FF00F0DAF800F060F85F
:1006800000F08EFC00F0C4FC40F608004021C2F2ED
:10069000000000F0B5F940F64011C2F2000101225D
:1006A00088610277002383F3118862B644F6F07004
:1006B0008969C0F600008861009340F6500040F25E
:1006C0005163E021C0F60003C2F2000000F0F8F927
:1006D00003B000BDAFF30080AFF30080AFF3008044
:1006E00038B5134B9869C27F0AB1511EC177036AAE
:1006F000104C5A1C0262E0682268411CA242E16070
:1007000014D09568013D956085B91368D1685C6027
:100710002360D560002383F3118810698847202364
:1007200083F31188226890680028EED038BD00BF9E
:100730004009002030090020AFF30080AFF30080B3
:1007400040F63013C2F200034FF0FF3200205B602E
:100750001B609A60D8607047AFF30080AFF30080F1
:1007600070B40C4E03613468C260A568A94204D914
:100770002468491BA5688D42FAD363680460B442BB
:10078000436018606060816002D0A068411AA16077
:1007900070BC704730090020AFF30080AFF30080D9
:1007A0000368074A934203D0996882688918996060
:1007B00042681360036800215A60C160704700BF3F
:1007C00030090020AFF30080AFF30080AFF300806A
:1007D000202383F31188037F0D2B11D8DFE803F06A
:1007E00020101007100B101010101010100B416A81
:1007F0008A68531C8B6090E80C001A6001684B609B
:100800004FF0FF3242628168074B002202771B687B
:100810009A688A42FBD25968036041600860586058
:10082000002383F31188704740090020AFF3008054
:1008300040F64013C2F2000300225B601B609A6026
:100840005B611B61704700BFAFF30080AFF30080B6
:1008500000228168054B02771B689A688A42FBD2A6
:100860005968036041600860586070474009002083
:1008700040F64013C2F2000310B499691A68087771
:1008800014201468C87701201077104663601C603C
:100890009A6110BCFFF78CBEAFF30080AFF300800D
:1008A00030B54B1C87B0054611D00B4C0B4AA369E1
:1008B00001A8FFF755FF2846FFF7DAFF049B13B1A5
:1008C00001A8FFF76DFFA069406A07B030BDFFF7D0
:1008D000CFFF014CF7E700BF40090020D107000817
:1008E000F0B4144F8568BE690446B06861620023A5
:1008F00085420CD82377394609688A689542FBD926
:1009000048682160606004604C60F0BC70473377D9
:10091000394609688A689042FBD94868316070603E
:1009200006604E600123204631462377BC61F0BC4F
:10093000FFF73EBE40090020AFF30080AFF3008018
:100940000E4B18689969026830B453601A608C685D
:1009500098610125142300220577CB770A77034697
:1009600000E01B689A68A242FBD25A680B604A609A
:100970001160596030BCFFF71BBE00BF400900206A
:100980000D4B18689969026830B453608C681A601E
:1009900001259861002305770B77034600E01B686B
:1009A0009A68A242FBD85A680B604A60116059608D
:1009B00030BCFFF7FDBD00BF40090020AFF3008051
:1009C000044B1A68986991688368994200D8704707
:1009D000FFF7D6BF40090020AFF30080AFF30080DF
:1009E000034B9869C17F09B1FFF7CABFFFF7A8BFE2
:1009F00040090020AFF30080AFF30080AFF3008028
:100A0000F0B440F64014C2F20004002265690164AB
:100A1000046100F12C06816000F1280745614FF068
:100A2000020C60610121142480F81CC04277C47755
:100A3000C263826302628177826128618762066392
:100A4000C662F0BC704700BFAFF30080AFF3008018
:100A50002DE9F00340F64015C2F20005A1F1240C87
:100A600000EB0C076969C76040F80C30069B7B609F
:100A700040F2C153C0F600033B6202230377142304
:100A80000026904600F1280900F12C02C3770123CB
:100A90000561C0F808804161044668614677C0F886
:100AA0004080C66386630662837786610861C0F80A
:100AB00028900263C262BDE8F0037047AFF3008084
:100AC00010B51C4682B0202383F311882346049C72
:100AD0000094FFF7BDFF00210446FFF701FF00234C
:100AE00083F31188204602B010BD00BFAFF3008031
:100AF00008B50146202383F311880620FFF7D0FEB6
:100B0000002383F3118808BDAFF30080AFF30080AA
:100B100038B50E4B9C692546606255F8280FA842EF
:100B200006D00168A162FFF793FEA06AA842F8D13F
:100B3000607F830704D1636922691A6121694B616F
:100B40000E20BDE83840FFF793BE00BF40090020EB
:100B5000202383F31188FFF7DBBF00BFAFF30080D2
:100B60004060006081607047AFF30080AFF30080A9
:100B7000F8B5876881600137002F044629DC40689A
:100B8000436863601C60FFF763FE6FF0010607F0C7
:100B9000010146627D1CEFB149B160684268626044
:100BA0001460FFF755FE0135012D466213D06068D1
:100BB000436863601C60FFF74BFE466260684168F3
:100BC00061600C60FFF744FE6A1C46620235002A31
:100BD000EDD1F8BDF8BDF8BDAFF30080AFF30080F4
:100BE0000023406000608360704700BFAFF3008067
:100BF00008B5826B037F1143082B81630BD0092B4F
:100C000000D008BD426A11408A42FAD1FFF720FEA7
:100C10000021416208BD436A1942F7D108BD00BFF7
:100C200070B50468A04205460E4608D0201D0BC8CA
:100C30003343E360FFF7DCFF2468A542F6D170BDC3
:100C4000114B70B59E690546202383F31188B06B64
:100C500015EA00040ED121B9234683F311882046FA
:100C600070BD08207562FFF71BFE0028F4DBB06B37
:100C700005EA000461420C4020EA0400B06300234E
:100C800083F31188204670BD40090020AFF3008037
:100C900010B4024659B1084B9B69586244680D2054
:100CA00083E814005360236010BCFFF7F9BD4FF0D8
:100CB000FF3010BC704700BF40090020AFF3008038
:100CC00010B4C361019B40608A18002400608460F6
:100CD00041618161C1600261036210BC704700BF65
:100CE00038B50446C368006863610021A042A3616F
:100CF000A1600AD06FF00105026822605460FFF71E
:100D0000A7FD45622068A042F6D138BDAFF3008050
:100D1000426908B503468069824298681AD001305A
:100D2000986002F8011B19695A618A420BD218684F
:100D300098420DD0016819604B60FFF789FD0023D0
:100D40004362184608BD1868DA6898425A61F1D1C2
:100D5000002008BD0028E2D06FF0030008BD00BFEE
:100D600070B5202304460E4683F31188C36903B18E
:100D70009847A568204631463DB9FFF789FF00280E
:100D8000F7DA2B4683F3118870BDA1692269013D12
:100D9000A56011F8010B9142A16124BFE168A16136
:100DA000002383F3118870BDAFF30080AFF30080A0
:100DB0002DE9F0471E460446C769202383F31188B6
:100DC0004FF0000801F1010901EB020A0FB12046C2
:100DD000B847A568204631464DB9FFF759FF0028AE
:100DE000F7D02B4683F311884046BDE8F087A3690E
:100DF000013DA56013F8012B09F8012C2069A361BE
:100E0000834224BFE368A361002383F31188D145A3
:100E100008F10108E8D0202383F3118809F10109C2
:100E2000D4E700BFAFF30080AFF30080AFF30080E2
:100E300010B4C361019B40608C1800608260416106
:100E40008161C1600461036210BC7047AFF3008030
:100E500038B50269C368044600686361D11AA042CC
:100E6000A361A1600AD06FF00105036823605C6094
:100E7000FFF7EEFC45622068A042F6D138BD00BF06
:100E8000F8B504460F461646202383F31188A5685B
:100E9000204631463DB9FFF7FBFE0028F7DA2B4626
:100EA00083F31188F8BD6369013DA56003F8017BF8
:100EB00022696361934228BFE368E16928BF6361E7
:100EC00009B120468847002383F311881846F8BDEE
:100ED000826941699142034610B5806816D0441C6E
:100EE0009C6012F8014B19699A618A420BD218680A
:100EF000984206D0016819604B60FFF7A9FC0023F7
:100F00004362204610BDDA689A61F0E70028E6D017
:100F10006FF0020010BD00BFAFF30080AFF30080A0
:100F20002DE9F0479A46044688461646D0F81C90AC
:100F3000202383F311880027A56820466B1EEDB19E
:100F4000A360656918F8011B05F8011B226965613A
:100F5000954224BFE2686261B9F1000F00D0C84732
:100F6000002383F311880137013E10D0202383F33F
:100F70001188A56820466B1E002DE1D12046514600
:100F8000FFF786FE0028D7D02B4683F3118838461A
:100F9000BDE8F087AFF30080AFF30080AFF30080CF
:100FA00040F6601240F65C134CF200010648C2F2B3
:100FB0000002C2F20003C2F2010120F0070021F09A
:100FC0000701106019607047AF3E0020AFF300804A
:100FD000202383F31188094B09491A6809680730EF
:100FE00020F00700891A88429ABF10181860002262
:100FF000002383F311881046704700BF600900206A
:101000005C090020AFF30080AFF30080AFF30080F5
:1010100040F66813C2F2000340F6D1710022C0F618
:10102000000103F1100019609A60DA60FFF7D8BD83
:1010300008B501F0F5FA00F04BFD45F2D010C0F60E
:10104000000002F07DFA00F043F800F089F800F0AB
:10105000F7FA00F08DFA00F063FD00F0F9FBBDE84F
:10106000084003F09DBB00BFAFF30080AFF30080EA
:101070004FF48053CEF2000381425A6806D982426F
:1010800008D38A422CBF0020012070478242F8D347
:101090000120704700207047AFF30080AFF300805D
:1010A0004FF48053CEF2000319465A6880188242EA
:1010B0004B6802D29A4202D970479A42F7D99842B5
:1010C00094BF00230123002BF1D17047AFF30080C0
:1010D00001F07EBBAFF30080AFF30080AFF3008080
:1010E00000230122027043608360C3600361436197
:1010F0001830FFF775BD00BFAFF30080AFF300807D
:1011000010B52023044683F31188416001F0A8FB49
:1011100002232370002383F3118810BDAFF30080F6
:1011200070B51E460446202383F3118840F640150F
:101130000323C2F2000582600370C660016101F002
:10114000FFFBA96902206161FFF792FBAA690023F6
:10115000506A83F3118870BDAFF30080AFF3008055
:1011600001F09EBDAFF30080AFF30080AFF30080CD
:1011700038B504460025012300F1080029462370F4
:101180006560FFF7EDFC04F114002946FFF7E8FC69
:1011900004F12000206238BDAFF30080AFF300807F
:1011A000C368990F12D1826841689305880F9B0D1F
:1011B00040EA8303C1F3C231581CC2F303428B1CC3
:1011C00000FA03F0093A00FA02F07047012901D051
:1011D000002070478268C38802F03F0043EA004164
:1011E0004A1C9002704700BFAFF30080AFF300804D
:1011F0000379052B01D001207047806A4FF40072FB
:1012000048600A6000207047AFF30080AFF30080B1
:10121000F0B5032383B00371044601F0A1FE002161
:101220000A46204601F0E4FE4FF4D572204608211C
:1012300001AB01F015FF024670B901990120C1F31D
:101240000323834220636DD0204601F0B1FE0221CA
:101250002171012003B0F0BD002020630025C8F2F9
:101260001005642620463721002201AB01F0F8FE6C
:101270000028E9D14EF208030198CFF6FF5303404E
:10128000002BE1D1204629212A4601AB01F0C8FEFE
:1012900007460028D8D1019900295BDB013ED3D055
:1012A0000A20FFF725FC204637213A4601AB01F022
:1012B000D7FE0028C8D14EF20801019ACFF6FF519F
:1012C00011400029C0D1204629212A4601AB01F056
:1012D000A7FE07460028B7D1019900293ADB0A206A
:1012E000FFF706FC204637213A4601AB01F0B8FE75
:1012F0000028A9D14EF208030198CFF6FF5303400E
:10130000002BA1D1204629212A4601AB01F088FEFD
:10131000002899D1019900291CDB0A20023EFFF721
:10132000E7FB9FE72046372101AB01F099FE00283B
:101330008AD14EF20801019ACFF6FF5111400029DF
:1013400082D1256B05F00F06012E87D10025CCF246
:10135000100586E74B0003D5226B42F01003236390
:1013600000222046022104F1080301F029FF024671
:1013700000287FF469AF2046032104F1380301F00F
:101380006FFE00287FF460AF04F1180520460921A4
:10139000A26B2B4601F014FF00287FF455AF2046C6
:1013A00001F0F6FD20460721A26B01AB01F058FECB
:1013B00000287FF449AF204610214FF4007201ABA2
:1013C00001F04EFE00287FF43FAF4EF20800019975
:1013D000CFF6FF50084000287FF436AF226B02F0B2
:1013E0000F03012B27D80121204601F0E9FD2046FB
:1013F0003721A26B01AB01F033FE00287FF424AF4C
:101400004EF208000199CFF6FF50084000287FF403
:101410001BAF20460621022201AB01F021FE00286D
:101420007FF412AF4EF20802019BCFF6FF521A4032
:10143000002A7FF409AF2846FFF7B2FEA062002819
:101440003FF402AF05202071002003E7AFF30080D6
:1014500038B50579052D044601D0012038BD082393
:10146000037102F065F8257138BD00BFAFF300804D
:1014700070B54E1E856AF618AE42044605D9406B1B
:1014800040F080016163012070BD0725057101F006
:10149000E7FF0523237170BDAFF30080AFF3008039
:1014A00070B54E1E856AF618AE42044605D9406BEB
:1014B00040F080016163012070BD0625057101F0D7
:1014C00067FF0523237170BDAFF30080AFF3008089
:1014D00010B5044682B001AB20460D21A26B01F08D
:1014E000BFFD4EF20803CFF6FF5338B9019A1340FF
:1014F000C2F3432113B9042909D002D2012002B05A
:1015000010BD0729FAD80120FFF7F2FAE3E71846E1
:10151000F5E700BFAFF30080AFF30080AFF30080CA
:1015200038B50446202383F311880379022B15D0A4
:1015300004210171002383F31188FFF7C9FF0546D9
:1015400020462DB901F034FD02202071284638BD17
:1015500001F02EFD02222271012038BD002383F309
:101560001188184638BD00BFAFF30080AFF300808C
:1015700001F0B6BCAFF30080AFF30080AFF30080A2
:1015800045F210020023C0F6000201210260017141
:101590004363C36283627047AFF30080AFF30080A0
:1015A00010B52023044683F31188C16201F0A8FC22
:1015B00002232371002383F3118810BDAFF3008051
:1015C0000C30FFF7F5BB00BFAFF30080AFF3008036
:1015D0000C304FF0FF33FFF7EBBB00BFAFF30080E1
:1015E0003030FFF79DBC00BFAFF30080AFF3008049
:1015F00030304FF0FF33FFF793BC00BFAFF30080F4
:101600000C30FFF7ADBB00BFAFF30080AFF300803D
:101610000C304FF0FF31FFF7A3BB00BFAFF30080EA
:101620003030FFF72DBC00BFAFF30080AFF3008078
:1016300030304FF0FF32FFF723BC00BFAFF3008024
:1016400003F016B8AFF30080AFF30080AFF3008073
:1016500070B545F230030546C0F60003044645F870
:10166000043B82B0656001250B46164604F1540127
:101670001022257200F10C000094FFF721FB00946A
:1016800004F1300004F1640110223346FFF7D0FB6F
:1016900002B070BDAFF30080AFF30080AFF3008005
:1016A00010B52023044683F3118802F0F9FF0223CA
:1016B0002372002383F3118810BD00BFAFF30080B5
:1016C00038B5436904460D463BB104F10C00294688
:1016D000FFF71EFB00280BDB38BD04300421FFF7A9
:1016E0009FFA04F10C002946FFF712FB0028F3DAF9
:1016F000201D8021BDE83840FFF792BAAFF300808B
:1017000038B5046AD4F8542213681978042900D033
:1017100038BD207A0228FBD15279598903EB820324
:1017200041FA02F0DA6810F00103518AF0D1E5695C
:10173000A0696269281A801A8142E9D883F3118866
:10174000D4F85422B0FBF1F301FB03F31068517994
:1017500004F10C0200F05CFA202383F31188D4F822
:10176000543218685979BDE8384000F071BA00BFAA
:1017700010B5046AD4F854321A681178042900D0DC
:1017800010BD207A0228FBD11B79128942FA03F19D
:1017900011F00103F4D1206CE16BA26B401A821AA4
:1017A000EED083F31188D4F85412134608680979EF
:1017B00004F1300200F03CFA202383F31188D4F8BE
:1017C000543218681979BDE8104000F059BA00BFCA
:1017D0000C30FFF7EDBA00BFAFF30080AFF300802D
:1017E0000C304FF0FF33FFF7E3BA00BFAFF30080D8
:1017F0003030FFF795BB00BFAFF30080AFF3008040
:1018000030304FF0FF33FFF78BBB00BFAFF30080EA
:101810000C30FFF7A5BA00BFAFF30080AFF3008034
:101820000C304FF0FF31FFF79BBA00BFAFF30080E1
:101830003030FFF725BB00BFAFF30080AFF300806F
:1018400030304FF0FF32FFF71BBB00BFAFF300801B
:10185000704700BFAFF30080AFF30080AFF30080AC
:1018600030B545F250030546C0F60003044645F87E
:10187000043B83B0656041F20173012504F154011A
:10188000257200F10C004FF48072C0F60003009442
:10189000FFF716FA41F27173009404F1300004F579
:1018A000AA714FF48072C0F60003FFF7C1FA03B0CB
:1018B00030BD00BFAFF30080AFF30080AFF3008016
:1018C00010B40A68202383F311880B7902EB830498
:1018D000002320624C790D3442F824008C7902EB0D
:1018E00084021062C0F854120221017283F311883D
:1018F00010BC7047AFF30080AFF30080AFF30080FF
:1019000070B5D0F8543200F10C06044630461D681C
:10191000FFF7E6F904F13000FFF79AFA201D0121E4
:10192000FFF77EF9D4F85402417905EB810228468D
:10193000D36832465B8A00F06BF9D4F854124979C7
:101940002846BDE8704000F083B900BFAFF30080C7
:1019500090F85C3003F06001202901D0002070472E
:1019600090F85D20212A03D0222A09D0202AF5D11F
:1019700006490722002301654265836501207047FF
:10198000002303654365836501207047000800203C
:1019900000EB810370B51C6A06460D46ACB12023EE
:1019A00083F311880821201DFFF73AF9216CE26BBF
:1019B000A06B8B1A191A11D106EB8502D068436906
:1019C000596819B9002383F3118870BD028A501E2B
:1019D00010EA0103F6D183F3118803E0002383F3B7
:1019E00011880B463046294604F1300200F020F9F8
:1019F000202383F311883046294600F041F9E1E7BE
:101A000001F10D0370B550F823400D460646A4B110
:101A1000202383F3118804216018FFF701F906EBF6
:101A20008501E069CA68A1696369528A401AC11ACE
:101A30008A4203D9002383F3118870BD002383F306
:101A40001188B1FBF2F302FB03F33046294604F19F
:101A50000C0200F0DDF8202383F31188304629467C
:101A600000F0F6F8E6E700BFAFF30080AFF30080C8
:101A7000704700BFAFF30080AFF30080AFF300808A
:101A80004FF48053CEF2000359688160704700BF65
:101A90004FF48053CEF20003094A81685B6810B4AA
:101AA0001468C2685B1A191B9142816005D80269EB
:101AB000914238BF016110BC7047C160FBE700BFB5
:101AC00088090020AFF30080AFF30080AFF30080FF
:101AD00010B540F6881486B0C2F200044FF480536B
:101AE0000022CEF200034FF0FF30226004920590F6
:101AF000596841F6912241F6812301A8C0F60003FE
:101B0000C0F60002019302920391FFF7C1FF039810
:101B1000206006B010BD00BFAFF30080AFF30080BF
:101B200002F026B9AFF30080AFF30080AFF300807E
:101B30000023012202704360436283638362C363B4
:101B4000C362036403634364436383640381438127
:101B5000704700BFAFF30080AFF30080AFF30080A9
:101B600038B50446202383F3118800254160C56001
:101B7000056145618561C561056202F021F90223B5
:101B800023702B4683F3118838BD00BFAFF300806C
:101B900070B50646506914460D4618B1002114224E
:101BA00003F086F9A06918B10021102203F080F932
:101BB00006EB850330462946DC60BDE8704002F044
:101BC00037BA00BFAFF30080AFF30080AFF30080FF
:101BD00030B400EB81040025E468A4692570E2605C
:101BE0006360A56030BC02F0F3BA00BFAFF30080C1
:101BF00030B400EB81040025E46864692570E2607C
:101C00006360A56030BC02F0FBBA00BFAFF3008098
:101C100030B400EB8104E568AC6901256360002302
:101C20002570E260A36030BC02F0D2BAAFF300804E
:101C300030B400EB8104E5686C6901256360002322
:101C40002570E260A36030BC02F0DABAAFF3008026
:101C500070B5448944FA01F313F001060D4601D032
:101C6000012070BD012303FA01F52C43448102F0E9
:101C700017FC304670BD00BFAFF30080AFF30080AB
:101C800070B5048944FA01F313F001060D4601D042
:101C9000012070BD012303FA01F52C43048102F0F9
:101CA00007FC304670BD00BFAFF30080AFF300808B
:101CB00010B40346002202240470A0F8642083F8C4
:101CC000662080F8672002814281C2600261426121
:101CD0008261C261026283F84C2010BC02F000B93C
:101CE000F8B50446002380F84C3000F15C0202F0A5
:101CF0005FFA6068816841B32046884728B3656D04
:101D000094F85C3094F8631094F8622042EA012061
:101D1000A8423CBF0546606513F0800F2B467DD17D
:101D2000002D68D1052184F84C10204629462A460A
:101D3000FFF75EFF202383F3118820462946FFF733
:101D40009FFF2B4683F31188F8BD94F85C3013F0A5
:101D5000600711D00021204602F0CAFB2046002176
:101D600002F0BEFB63681A6812B120460521904755
:101D7000062084F84C00F8BD94F85D6003F07F0203
:101D800042EA0626B6F5407F00F0F98016DDB6F58A
:101D9000C06F00F0898068DDB6F5106F00F0B48088
:101DA00040F60242964278D0B6F5006FD2D10125B6
:101DB00004F1670020656565A765A3E7022E00F0C2
:101DC000B58065DDB6F5807F00F08780B6F5817F50
:101DD000C0D194F85E100029BCD194F8605015F081
:101DE0000F0150D02A06204600F1FA8002F088FB4D
:101DF00094F85C3047E0042284F84C20204600210F
:101E0000226DFFF7E5FE202383F311880021204691
:101E1000FFF71EFF002383F31188F8BD95B1012160
:101E200084F84C1020460021226DFFF7E1FE2023AC
:101E300083F3118800212046FFF722FF002383F35C
:101E40001188F8BD032084F84C00294620462A4614
:101E5000FFF7BEFE202383F3118820462946FFF7B3
:101E6000F7FE2B4683F31188F8BD40F2023086421C
:101E700073D0B6F5A06F7FF46DAFB4F85C10B1F518
:101E8000A06F00F09B80002525656565A56539E795
:101E9000002E32D0012E7FF45DAF5649022500227C
:101EA00021656565A2652DE7606894F8616094F826
:101EB0006030456894F85F1094F85E20204643EA4D
:101EC0000623A84700283FF445AF4168056894F809
:101ED0005C3021656565A76514E794F85E20012AEA
:101EE0007FF438AFB4F86400276520F00201A4F84D
:101EF00064106765A7653D4604E7022504F16400A8
:101F000020656565A665FDE694F85E5084F8675027
:101F1000002D44D10321217062681568002DB2D0D4
:101F200020460221A84794F85C30ACE794F8603072
:101F300013F0800F204603F00F0133D102F018F99F
:101F4000012833D002287FF405AF2B4D606525654D
:101F5000A76594F85C300546D4E694F85E10002935
:101F60007FF4F8AE94F8605015F00F018BD02B067B
:101F700020463AD402F0B4FA94F85C3083E794F83F
:101F80005E20012A7FF4E6AEB4F86450276545F080
:101F90000200A4F864006765A7653D46B2E6042028
:101FA0002070B9E702F0F4F80128CBD1134A666536
:101FB0002265A76594F85C303546A3E694F85E3058
:101FC000204684F8663002F023F865682A6812B16A
:101FD000204601219047032094F85C30207052E79E
:101FE00002F096FA94F85C304DE702F081FA94F82A
:101FF0005C3048E77050000880500008905000089E
:1020000038B590F84C30022B044624D0052B36D03E
:10201000012B10D0002102F06BFA2046002102F0C3
:102020005FFA6068026812B12046052190470621D8
:1020300084F84C1038BD90F8631090F86230426D0F
:1020400043EA0121914206D9C5682B8AB2FBF3F11C
:1020500003FB1125D5B1002103200B4684F84C0069
:102060000A462046FFF7B4FD202383F311880021A0
:102070002046FFF7EDFD002383F3118838BD826D04
:1020800002B19047002384F84C3038BD2B462946D6
:102090002A46FFF7ADFD202383F311882046294609
:1020A000FFF7EEFD2B4683F31188022084F84C00E5
:1020B00038BD00BFAFF30080AFF30080AFF3008006
:1020C00090F84C30032B10B5044626D0042B11D0C9
:1020D0000021204602F00CFA2046002102F000FA0E
:1020E00063681A6812B1204605219047062184F8DA
:1020F0004C1010BD002105220B4680F84C200A46EA
:10210000FFF776FD202383F3118800212046FFF797
:10211000B7FD002383F3118810BDC1688B699A68ED
:10212000002AD5D1816D01B18847002084F84C0088
:1021300010BD00BFAFF30080AFF30080AFF30080AD
:1021400008B54FF4C043C4F2020306481968026898
:1021500001F03D0199600AB140689047BDE8084030
:10216000FEF7DEB98C090020AFF30080AFF30080EA
:102170004FF4C043C4F2020307481968826810B5DF
:102180008C0904F03D018C019C600AB1C068904745
:10219000BDE81040FEF7C4B98C090020AFF3008001
:1021A0004FF4C043C4F2020307481968026910B52E
:1021B0000C0C04F03D010C049C600AB1406990478E
:1021C000BDE81040FEF7ACB98C090020AFF30080E9
:1021D0004FF4C043C4F2020307481968826910B57E
:1021E0008C0D04F03D018C059C600AB1C0699047DC
:1021F000BDE81040FEF794B98C090020AFF30080D1
:1022000008B54FF4C043C4F2020306485968026A95
:1022100001F03D01D9600AB1406A9047BDE808402D
:10222000FEF77EB98C090020AFF30080AFF3008089
:102230004FF4C043C4F2020307485968826A10B5DC
:102240008C0904F03D018C01DC600AB1C06A904742
:10225000BDE81040FEF764B98C090020AFF30080A0
:102260004FF4C043C4F2020307485968026B10B52B
:102270000C0C04F03D010C04DC600AB1406B90478B
:10228000BDE81040FEF74CB98C090020AFF3008088
:102290004FF4C043C4F2020307485968826B10B57B
:1022A0008C0D04F03D018C05DC600AB1C06B9047D9
:1022B000BDE81040FEF734B98C090020AFF3008070
:1022C00008B54FF4C843C4F2020306481968026C0B
:1022D00001F03D0199600AB1406C9047BDE80840AB
:1022E000FEF71EB98C090020AFF30080AFF3008029
:1022F0004FF4C843C4F2020307481968826C10B552
:102300008C0904F03D018C019C600AB1C06C9047BF
:10231000BDE81040FEF704B98C090020AFF300803F
:102320004FF4C843C4F2020307481968026D10B5A0
:102330000C0C04F03D010C049C600AB1406D904708
:10234000BDE81040FEF7ECB88C090020AFF3008028
:102350004FF4C843C4F2020307481968826D10B5F0
:102360008C0D04F03D018C059C600AB1C06D904756
:10237000BDE81040FEF7D4B88C090020AFF3008010
:1023800008B54FF4C843C4F2020306485968026E08
:1023900001F03D01D9600AB1406E9047BDE80840A8
:1023A000FEF7BEB88C090020AFF30080AFF30080C9
:1023B0004FF4C843C4F2020307485968826E10B54F
:1023C0008C0904F03D018C01DC600AB1C06E9047BD
:1023D000BDE81040FEF7A4B88C090020AFF30080E0
:1023E0004FF4C843C4F2020307485968026F10B59E
:1023F0000C0C04F03D010C04DC600AB1406F904706
:10240000BDE81040FEF78CB88C090020AFF30080C7
:102410004FF4C843C4F2020307485968826F10B5ED
:102420008C0D04F03D018C05DC600AB1C06F904753
:10243000BDE81040FEF774B88C090020AFF30080AF
:102440002DE9F00F40F60C258AB0C2F2000546F2E5
:1024500040400295783046F21045C4F20205A0F5DE
:1024600080600495C4F2020046F240450390C4F235
:10247000020546F228400695C4F2020046F2704575
:102480000590C4F2020546F258400195C4F20200DC
:1024900046F2B8450790C4F2020546F28840099515
:1024A000C4F20200029D089046F2100B002040F694
:1024B0008C1346F2280A46F2400946F2580846F2C2
:1024C000700C46F2880746F2A006C2F200032860AC
:1024D000C4F2020B039DCBF80000C4F2020AC4F25E
:1024E0000209C4F20208C4F2020CC4F20207C4F2E8
:1024F00002061860CAF800009860C9F80000186168
:10250000C8F800009861CCF8000018623860986242
:10251000306018632860049D98632860059D1864E6
:102520002860069D98642860079D186546F210444F
:1025300028606034019D986530342860C4F202043C
:10254000089D18664FF4C0414FF4C8422860C4F299
:1025500002019866C4F202022060099C18674FF0DD
:10256000FF35206098678D60CD609560D5600AB0BA
:10257000BDE8F00F704700BFAFF30080AFF30080FD
:102580002DE9F041244E447A3768012505FA04FC10
:102590001CEA070F3AD1214D4CEA070705EBC408A6
:1025A00017F0FF0F45F83420C8F80430376007D023
:1025B0004FF46053C4F202031C6B44F400161E6314
:1025C00017F47F4F19D10468266826F01F0525608F
:1025D000276817F00105FBD1067A43683D2707FA03
:1025E00006F61E6021232560636192B1807A09019D
:1025F000FDF7EEFF2846BDE8F0814FF46055C4F2C8
:1026000002052F6B47F480032B63DCE72846BDE807
:10261000F0811046BDE8F0810C0A00208C090020F2
:102620004FF46053C4F2020370B400224FF0FF3441
:1026300019691C611A6159695C615A611E6A4EF21E
:10264000100166F080561E62CEF200011A6249F255
:102650003F054EF6F0505E6A5C62CEF20000072441
:10266000C0F202055A624D608A600C60C4684FF483
:102670008051CEF2000144F08074C460086840F0DC
:1026800001000860186C4FF4E041C4F2000140F012
:1026900080501864086840F480700860196F01F475
:1026A0004070B0F5007F03D04FF4803119671A678E
:1026B0004FF4E043C4F200035A6822F400705860FB
:1026C00070BCFFF7BDBE00BFAFF30080AFF300806A
:1026D0004FF460514FF4E043C4F20201C4F200032E
:1026E0004FF080524FF440400A6418600B6843F08A
:1026F00001020A6008684FF460538007C4F20203C5
:10270000F8D5196801F0F90200211A60184699609D
:1027100082684FF4605312F00C0FC4F20203F7D139
:10272000186840F480311960184602684FF460530D
:102730009203C4F20203F8D5596F41F001005867C3
:1027400019464A6F4FF460539007C4F20203F8D55C
:1027500045F20C40C0F24070586019684FF4E042F6
:1027600041F080701860C4F2000253685904FCD52F
:102770004FF46051C4F202010A684FF460509201B4
:10278000C4F20200F8D54FF47053C4F202034FF4C0
:102790001441C3F6080140F2057281601A60836833
:1027A00043F002018160826802F00C014FF4605333
:1027B0000829C4F20203F6D1586C40F480425A64EE
:1027C000596E41F480405866704700BFAFF30080F7
:1027D000F8B540F61026C2F20006304640F6442511
:1027E000FEF77EFCC2F200051A4F4FF4005242F68B
:1027F0001643C4F20102C0F20203284640F67824D0
:10280000C2F20004B262F7623363FEF769FC4FF470
:10281000045242F61643A7F11801C4F20102C0F2B5
:1028200002232046AA62E9622B63FEF759FC4FF4AB
:10283000085242F61643C4F20102243FC0F202439A
:1028400012206021A262E7622363BDE8F840FDF731
:10285000BFBE00BF30510008AFF30080AFF300806F
:102860000378012B10B5044600D010BD2D488442DA
:1028700016D02D498C4229D02C4A94423CD04FF49A
:102880000C52C4F20102A36A516801F4400040F402
:102890008030506000210122596099609A6010BD1B
:1028A000234AE06A06212346FFF76AFEE06A42F205
:1028B0004C0201684FF46053C4F20203C4F20102F7
:1028C0008A60586C40F480725A64D8E7184AE06A0B
:1028D00006212346FFF754FEE16A42F24C120868D3
:1028E0004FF46053C4F20203C4F201028260596CD7
:1028F00041F400725A64C2E70D4AE06A0621234699
:10290000FFF73EFEE36A42F24C2019684FF4605331
:10291000C4F20203C4F2010088605A6C42F4806081
:102920005864ACE7100A0020440A0020780A00200E
:10293000F1290008AFF30080AFF30080AFF300800F
:102940000369026B19782DE9F003C46829B1012CE1
:1029500094BF42F4807242F48472C56A5E8829682A
:102960008768D3F80CC0CF6006FB04F44C600A60A3
:10297000D1F80090D3F814809F69DE691D6A5C6A03
:102980001B69826A49F00109C1F800904CF080602F
:10299000002113F0804F43F4407340F4807014BF63
:1029A00043F0030343F001031160C2F80C80176188
:1029B000D6621563546350609360BDE8F0037047BE
:1029C000C16A0A68136810B423F01F041460136806
:1029D00013F00103FBD10C7A826A49683D2000FAAA
:1029E00004F00860536093600123936010BC70474B
:1029F00011F00C0F38B504461DD10369D3B18A0616
:102A000010D51D78002D3BD05D689DB1C268012AAC
:102A100033D959888368520801FB02F103EB410165
:102A2000A84738BDCA0605D55B681BB1C268816876
:102A30005208984738BDFFF7C3FF206983683BB150
:102A4000052200212270204698472178052911D0BF
:102A500000222261202383F31188636933B14FF090
:102A6000FF31626118465962FDF7F2FE002383F3DD
:102A7000118838BD02202070EAE78168A84738BD78
:102A8000FFF79EFF20694368CBB1042222702046E5
:102A9000A168E2689847207804280CD0202383F3AB
:102AA000118861690029E1D00022626108464A620A
:102AB000FDF7CEFEDAE7022323702561EEE702215F
:102AC00021702361EAE700BFAFF30080AFF300801D
:102AD0004FF40053C4F2010300211A6810B51960C5
:102AE000910605D54B4CE06A03685A68002A64D108
:102AF0004FF40450C4F20100002302680360920600
:102B000005D5454CE16A08684268002A32D14FF485
:102B10000850C4F20100002302680360930625D523
:102B20003E4CE16A0868426802B32369F3B120466B
:102B3000FFF746FF21698B683BB10520207001211A
:102B4000204698472278052A5AD000222261202365
:102B500083F31188606930B14FF0FF332F4943622E
:102B60004A61FDF775FE002383F31188BDE810402C
:102B7000FDF7D6BC2369002BC9D02046FFF720FF04
:102B800021698B683BB105202070012120469847C0
:102B90002278052A3AD000222261202383F311886B
:102BA000606930B14FF0FF331B4943624A61FDF762
:102BB0004FFE002383F31188A9E72169002997D0EC
:102BC0002046FFF7FDFE206983683BB10522012105
:102BD0002270204698472178052914D000222261CE
:102BE000202383F31188606930B14FF0FF33094926
:102BF00043624A61FDF72CFE002383F3118877E7D7
:102C000002212170A1E702202070E7E70221217054
:102C1000C1E700BF100A0020440A0020780A002003
:102C20004FF40C53C4F201035A6842F40000586098
:102C3000704700BFAFF30080AFF30080AFF30080B8
:102C40004FF41043C4F2020310B55C6962065C6184
:102C50000FD4E30709D5202383F311880C48002102
:102C6000FDF786FF002383F31188BDE81040FDF7D0
:102C700057BC202383F3118800210648FDF778FF15
:102C800005480021FDF7CCFF002383F31188E0E71E
:102C9000B40A0020C00A0020CC0A0020AFF3008054
:102CA0002DE9F84F664C674E2046FEF761FA6649FB
:102CB000664B674A01F58E5544F2F25E03F1200936
:102CC00001F6E83803F1100B01F2F45A03F1300C6D
:102CD0001C354FF46050C3F804E000279960C4F23B
:102CE0000100C3F80CB002F11001C3F814E0C3F8FE
:102CF00018A0C3F81C90C3F824E0C3F82880C3F8D8
:102D00002CC0C3F834E09D63DB6306F2F4535760D4
:102D10009660D16057619361D261426884F82470F3
:102D20004FF46055C4F2020542F400014160286985
:102D300040F000732B612F612F6B4FF4805247F0EE
:102D40006061CEF200022963576807F1807E0EF5BC
:102D5000B2484FF4004538464146C4F202054CF2F1
:102D6000F009FEF785F9E0B10026F102B00140F06C
:102D7000100241F091036A612B6128694FF400430E
:102D8000C007C4F20203F8D45A69072A0DD00136ED
:102D90001F2EEAD1A16238464146FEF769F90028A4
:102DA000E2D1FDF77DFBA16A10E041F0D10018618E
:102DB0002A694FF40043D207C4F20203F8D45869D9
:102DC0004FF6F07202404A45E1D1A1624FF4004350
:102DD000C4F2020341F013044FF4004058611A4654
:102DE0001C611369D807FCD44FF4004041F0110175
:102DF000C4F20200016102694FF40043D207C4F239
:102E00000203F8D45A691204F4D4196118694FF412
:102E10000042C107C4F20202F8D4516941F40063D0
:102E20005361104614610269D307FCD44FF460511A
:102E3000C4F202010B6B23F060600863BDE8F88FF9
:102E4000AC0A0020F0220020E00A0020B02200207E
:102E5000D82E0020AFF30080AFF30080AFF30080E6
:102E600001F001038A0748BF43F002034A0748BF45
:102E700043F008030A0748BF43F00403CA0648BFEB
:102E800043F010038A0648BF43F020038A05426BD3
:102E900048BF43F0400342EA03014163704700BF6B
:102EA00038B5202383F31188094C4FF43053C4F212
:102EB0000103E06B0025DD6310B1FDF7C9FCE5639C
:102EC000002383F31188BDE83840FDF729BB00BF1C
:102ED000F82E0020AFF30080AFF30080AFF3008046
:102EE00010B542F6F864C2F200042046FEF748FB33
:102EF00002480023E363606410BD00BF2451000852
:102F0000027945F22043C0F6A303012A10B5044616
:102F1000036409D04FF43050C4F201000022026073
:102F20004260C262426210BD002213460921406C19
:102F3000FFF726FB606C4FF432510368C4F20101C5
:102F40000722996031205A619021FDF741FB4FF42F
:102F50006050C4F20200416C41F400634364D9E75D
:102F60004FF43053C4F2010378225A60186840F0DD
:102F7000030119605A6842F4807058600A20FDF716
:102F8000B7BD00BFAFF30080AFF30080AFF30080A8
:102F90004FF43053C4F201035A6822F0FF00586026
:102FA000704700BFAFF30080AFF30080AFF3008045
:102FB0004FF43053C4F2010300225A601A60704784
:102FC0004FF43053C4F2010301295A6822F4C0506F
:102FD00007D001D2586070470229FCD140F48050DC
:102FE000F8E740F400615960704700BFAFF300801C
:102FF0004FF43053C4F2010341F480619A601846E3
:10300000D960426B4FF430531206C4F20103F8D575
:1030100080219963704700BFAFF30080AFF3008059
:1030200010B54FF43054C4F2010441F48861A26039
:10303000E160616B4FF4305211F0450FC4F20102B0
:10304000F7D011F00404916303D15169204619604F
:1030500010BDFFF705FF012010BD00BFAFF30080DA
:1030600010B54FF43054C4F2010441F48861A260F9
:10307000E160616B4FF4305211F0450FC4F2010270
:10308000F7D011F00504916303D15169204619600E
:1030900010BDFFF7E5FE012010BD00BFAFF30080BB
:1030A0002DE9F041202306468846174683F3118810
:1030B0004FF43054C4F20104E36B002B33D14FF4CE
:1030C0003052C4F20102546B14F4807326D0736C36
:1030D0001D682C6814F00104FBD1197A5B684FF469
:1030E0003055C4F201053D2040F2FF7200FA01F1B3
:1030F000C0F2C0021960AA632346EC6283F3118810
:10310000B8F1010F07D930460C2122463B46BDE8F5
:10311000F041FFF7A5BF2046BDE8F08183F3118899
:103120000120BDE8F081034881690220F163FDF7C9
:103130009FFBC4E740090020AFF30080AFF300809D
:103140002DE9F047466C4FF43053347A3568C4F2B9
:10315000010307464FF03D0E7068D3F834C00EFAF5
:1031600004F404602B6823F01F04894690462C6009
:10317000296811F00104FBD1327A4FF43055C4F2C2
:1031800001053D2140F2FF7301FA02F2C0F2C003D3
:1031900002606146AB633846EC63EC62FFF760FEA9
:1031A000B9F1010F07D938460C2122464346BDE844
:1031B000F047FFF755BFBDE8F08700BFAFF30080D1
:1031C00010B54FF43054C4F2010441F49861A26088
:1031D000E160616B4FF4305211F0450FC4F201020F
:1031E000F7D011F03F04916309D1106A1860D169DA
:1031F00059609069986052692046DA6010BDFFF707
:103200002FFE012010BD00BFAFF30080AFF30080A0
:103210002DE9F0414FF43054C4F201044FF41F552E
:10322000C0F2090582B065620F46054690461E460B
:10323000FEF74EF918B1012002B0BDE8F0816B6CC9
:103240002A6C186873029908C0F80C80416002600B
:10325000016840F2FF7241F001010160C0F2C0025A
:1032600040F22A30A263E063A3629B23E3622C6BEB
:10327000E30658BF7F02012E01AC28461AD912215D
:103280003A462346FFF7ECFE68B94EF20801019A70
:10329000CFF6FF51114031B9284631462246FFF79B
:1032A000FFFE0028C8D0284631462246FFF748FFD7
:1032B0000120C1E711213A462346FFF7D1FE00283D
:1032C000E3D0F0E7AFF30080AFF30080AFF300800E
:1032D0002DE9F0414FF43054C4F2010448F6805512
:1032E000C0F25B0582B065620F46054690461E46F9
:1032F000FEF7EEF818B1012002B0BDE8F0816B6C6A
:103300002A6C18687302990842F04002C0F80C80D9
:1033100041600260016840F2FF7241F0010101600A
:10332000C0F2C00240F21A30A263E063A3622C6BC9
:10333000E30658BF7F02012E01AC284620D919218F
:103340003A462346FFF78CFE98B94EF20803019ADD
:10335000CFF6FF53134063B94FF43051C4F201016B
:103360009920C862224628463146FFF799FE002878
:10337000C2D0284631462246FFF7E2FE0120BBE7D5
:1033800018213A462346FFF76BFE0028DDD0F0E710
:1033900012F0030F2DE9F047154680460C461E46F5
:1033A00052D0002B4DD003EB0109CE434E440123F4
:1033B000274A1E40FFF72CFF00283FD1284624490A
:1033C0004FF40072013401F0CBFC4C4505F500755B
:1033D00037D02EB3404621461D4A0123FFF718FF80
:1033E00060BB28461A494FF40072013401F0B8FC62
:1033F0004C4505F5007513D123E0284601F0B0FCDB
:103400003146134A01234046FFF702FF4FF4007292
:103410000F49BD1890B9384601F0A2FC4C4510D0B8
:10342000214601230A4A661C4046F418FFF7F0FEC5
:103430004FF400720649AF180028DED00120BDE825
:10344000F0870020BDE8F087BDE8F047FFF7E0BE59
:10345000402F0020AFF30080AFF30080AFF3008077
:1034600012F0030F2DE9F041154607460C461E46A3
:1034700057D0002B52D003EB01082C48CB43114608
:103480004FF4007203EB080601F06AFC384621464F
:10349000264A012306F0010605F50075FFF718FF1F
:1034A000002838D10134444538D0F6B129464FF4CC
:1034B00000721E4801F054FC384621461B4A012385
:1034C00005F50075FFF704FF28BB013444450CD116
:1034D00024E0164801F044FC38463146134A0123E3
:1034E000FFF7F6FEB8B9444518D029464FF40072EC
:1034F0000E4801F035FC661C214601230B4A384674
:10350000F418FFF7E5FE05F500754FF40072294643
:10351000AD180028DDD00120BDE8F0810020BDE815
:10352000F081BDE8F041FFF7D3BE00BF402F00207F
:1035300000207047AFF30080AFF30080AFF300804E
:103540004FF46053C4F202031A6B6FEA52216FEA20
:1035500041221A63196D6FEA51226FEA42211965FF
:1035600000234168C4F202034FF48062596081680D
:103570009960C168D96001695961416919628169BD
:10358000596201681960016AC4F202024FF40063D3
:103590005160416A9160816AD160C16A5161016B79
:1035A0001162416B5162C1691160C4F20203C26BC6
:1035B0005A60016C9960426CDA60816C5961C26C2E
:1035C0001A62016D5962816B4FF440621960816D1E
:1035D000C4F202024FF480535160C16D9160016EDC
:1035E000D160416E5161816E1162C16E5162416D57
:1035F0001160C4F20203426F5A60816F9960C26F1A
:10360000DA60D0F880105961D0F884201A62D0F8BE
:1036100088105962016F4FF4A0521960D0F89010D1
:10362000C4F202024FF4C0535160D0F8941091607C
:10363000D0F89810D160D0F89C105161D0F8A0104B
:103640001162D0F8A4105162D0F88C101160D0F83B
:10365000AC10C4F202034FF4E0525960D0F8B0103D
:103660009960D0F8B410D960D0F8B8105961D0F88A
:10367000BC101962D0F8C0105962D0F8A810C4F27A
:1036800002021960D0F8C8305360D0F8CC109160B5
:10369000D0F8D030D360D0F8D4105161D0F8D83001
:1036A0001362D0F8DC105162D0F8C4104FF400530C
:1036B0001160D0F8E420C4F202035A60D0F8E81098
:1036C0009960D0F8EC20DA60D0F8F0105961D0F8A9
:1036D000F4201A62D0F8F8105962D0F8E0001860AF
:1036E000704700BFAFF30080AFF30080AFF30080FE
:1036F0002DE9F00F002302F00307C2F38006C2F3A6
:10370000C105C2F341144FF00F09C2F3C3124FF0C9
:10371000010A38E0D0F820B02BEA0C0C4CEA08087B
:10372000C0F82080D0F804B00AFA03FC2BEA0C0899
:1037300048EA060BC0F804B04FEA430C4FF0030B05
:10374000D0F808800BFA0CFC6FEA0C0C0CEA0808A5
:1037500048EA0508C0F80880D0F80C800CEA080890
:1037600048EA0408C0F80C80D0F800800CEA080C85
:103770004CEA070CC0F800C049081AD07600AD002A
:10378000A400BF00013303F0070C4FEA8C0C11F0CA
:10379000010F02FA0CF809FA0CFCEDD0072BB9D98D
:1037A000D0F824B02BEA0C0C4CEA0808C0F82480AE
:1037B000B8E7BDE8F00F7047AFF30080AFF30080CB
:1037C000C16E836E00222DE9F00110468F684FF024
:1037D000804C4FF0FF3617E0585055015C1902F14C
:1037E00058014901C4F81009C4F8086953F8018068
:1037F000B8F1000F17DB58505D190132BA42C5F815
:10380000100BC5F8086B15D802F1480461015D582A
:10381000002DE1DA550143F801C05C19D4F808190C
:103820008907FBD5DAE743F801C0D4F8081BC906BD
:10383000FBD5E1E74FF00110C3F81C08BDE8F0012B
:10384000704700BFAFF30080AFF30080AFF300809C
:10385000F8B5856E05EB41130646D3F8084B2207F1
:103860000F46C3F8084B03D5D5F81428130715D411
:10387000E20703D5D5F81408C30700D4F8BD06EB5A
:1038800087027189D368012000FA07F021EA00025B
:103890007281DB68304639469847F8BD00EB8103FA
:1038A000DA6853689847E3E7AFF30080AFF300802E
:1038B000826E890141F02003136110698306FCD4F4
:1038C0000C20FDF7EDBB00BFAFF30080AFF300802D
:1038D0002DE9F04F40F64011C2F20001D0F868A087
:1038E0008A698346914887B02023906183F31188C9
:1038F0004FF000089BF80030012B06D0DBF8744035
:103900009CB9DAF81450EB060FD440F64017C2F217
:103910000007DAF81860B96946F01002CAF81820F2
:103920000220CBF87C10FCF7A3FF002383F311885F
:103930001C46DAF8140010F010073AD0DBF86800E3
:10394000016A01F4F015B5F5802F47D0B5F5402F89
:10395000EFD101F00F070BEB8702C1F30A16D36812
:10396000F11C8D081F6AE4D000F580506A1E0368C0
:10397000114647F8043B02F001060123002AD8D083
:103980002EB105680023511E47F8045BD1D00268B0
:1039900013B147F8042B013B0139066813B147F80E
:1039A000046B013B0139F2D1DAF8140010F0100772
:1039B000C4D10125DBF87430A5401D42049540F0C8
:1039C000B78001340594DBF86C20059B9068DCB26D
:1039D0008442AED9202383F311888BE701F00F07CF
:1039E00002370BEB8705C1F30A166A6891690B78F9
:1039F000002B3BD10D1D2CCD0332D31AF21C9B089A
:103A0000920829D000F5805002F1FF3909F0010C2D
:103A1000AE46D0F800901BB1AE46013B4EF8049B79
:103A2000013A19D0BCF1000F07D0D0F800C013B193
:103A30004EF804CB013B013A0ED08946016813B120
:103A40004EF8041B013B013A016813B14EF8041B08
:103A5000013B013AF2D14946AD19CD600BEB870726
:103A600078688569A9688E19AE6062E700F58050B4
:103A7000CD68002E40D03346A446032B696907D990
:103A80002C69A14204D3EC68032B6C616969F7D8F7
:103A9000026801F8012B2C696961A14224BFE96821
:103AA0006961012B27D0D5F814E0110A0EF8011B2B
:103AB0002C69C5F814E0A64524BFEC686C61022BA4
:103AC00019D0D5F81490110C09F8011B2C69C5F810
:103AD0001490A14524BFEC686C61032B0BD069697D
:103AE000120E01F8012B2C696961A14224BFEC6818
:103AF0006C61043BC1D16446202383F31188A9681B
:103B000028688A19A842AA6009D003682B605D6002
:103B1000FCF79EFEC0F824802868A842F5D1FCF787
:103B20004FFF002383F3118898E700BF80510008FE
:103B3000202383F31188DAF80860DBF87410049806
:103B400026F0010221EA0005CAF808203B46CBF81E
:103B5000745083F31188A71C0BEB87035D686869B9
:103B600082684668964240F2FA80DBF868102D8A37
:103B700067010297CF19B61AD7F81829B54228BF9E
:103B8000354697B20134B5EB870F059447D8260325
:103B9000019603930378002B57D1019FEA1C5FEA3B
:103BA000920E01EB0704C7681ED03A460EF1FF36AD
:103BB00052F804CB334606F00109019E043241F865
:103BC00006C08BB1B9F1000F05D052F8041C0432C5
:103BD000013B216008D052F8046C266052F8041BA7
:103BE0000432023B2160F6D17C19C460039844681A
:103BF000606986684268AB199A42836040F2B1807E
:103C0000029DDBF86810248A4F19D51AD7F8186975
:103C1000A54228BF2546B2B2B5EB820FBAD9002023
:103C2000202383F31188DAF8081041F00104CAF860
:103C3000084030B9DAF83458049F47EA0506CAF854
:103C40003468002383F31188BDE6019AC46889189B
:103C5000002D35D020692A46AE4697084BD0A5697D
:103C6000431B48BF03339B109F4238BF3B464FEA7C
:103C7000830CCCEB0202DBB12E465F1E56F8049B90
:103C80003B46C1F8009007F0010704367BB12FB125
:103C900056F8047C0436013B0F6008D056F8047CCB
:103CA0000F6056F8047B0436023B0F60F6D1654482
:103CB000A842A5611DD8E668A661002ACDD1754647
:103CC000202383F31188A16820684F19A042A760C0
:103CD00009D0036823605C60FCF7BAFDC0F824805B
:103CE0002068A042F5D1FCF76BFE002383F3118816
:103CF0007CE7002AE3D0A66916F8013BB042A66132
:103D00009CBFE668A661012A27D0A76917F8015B66
:103D1000B842A7619CBFE768A761022A43EA05236E
:103D20001BD0A76917F8016BB842A7619CBFE76871
:103D3000A761032A43EA06430FD0A56915F8017B62
:103D40008542A56124BFE568A561043A43EA07639B
:103D500003D00B60002A80D1B1E70022F9E7631C91
:103D6000059301205CE700BFAFF30080AFF3008054
:103D700070B543F24015C2F20005284643F21034F4
:103D8000FDF7D6FEC2F2000445F26011002620467F
:103D90004FF0A043C0F60001AE67EE67AB66E96680
:103DA000FDF7C6FE304645F27012C4F20400C0F6BC
:103DB0000002A667E667A066E26670BDAFF300800A
:103DC00070B50378866E012B82B0054601D002B033
:103DD00070BD404885424FD03F498D425FD0AC6FA7
:103DE00000206867002C3BD04FF4A251C4F20001C0
:103DF0000322F160C0F2202200234FF45021AC6E68
:103E0000C6F800282020C6F8003EB163FDF748F947
:103E1000012020612269D307FCD40C20FDF740F972
:103E20002369002BFCDA00242846B460FFF7C8FCA5
:103E30006968C6F81048C868C6F81448C6F81C482F
:103E400050B143F20802B2614FF0FF317161B068C6
:103E500040F00102B260BAE74FF44053B361F3E7B8
:103E6000009505F180004FF4A87102221B4BFCF76E
:103E7000EFFDE867A867B7E74FF46054C4F20204A7
:103E8000636B43F0800060636169002341F080024E
:103E9000626143206361E021FCF79AFB9FE74FF4E6
:103EA0006054C4F20204226B42F000532363206981
:103EB000002240F0805121612261236B23F0804079
:103EC0002063216D21F0804222654D20E021FCF726
:103ED0007FFB84E74031002010330020D1380008F8
:103EE0002DE9F84F80460021846EFFF7E1FCD8F8F9
:103EF0006CB0DBF808A04FF00061FF22C4F8001995
:103F00000AF00106C4F8001B0123C4F80829C4F80C
:103F1000082BBAF1000F33D066B102235345C4F821
:103F2000201904F51267C4F8201BC4F82829C4F826
:103F3000282B25D85F1C03F1480903F1580003F131
:103F4000490C03F1590E04EB431604EB47154001ED
:103F50004FEA49194FEA4C1C4FEA4E1E02335345B3
:103F600044F809102150C6F80829C6F8082B44F86F
:103F70000C1044F80E10C5F80829C5F8082BD9D93B
:103F8000DBF80030D8F868204FF0FF314FF0011611
:103F90001025C4F81818C4F81C68C8F8703063629B
:103FA0001561106910F01005FBD10C20FDF778F8B1
:103FB000D4F80038D8F8701023F4FE62C4F8002852
:103FC000A66946F44020092240F01006A66148F296
:103FD0004003C4F81028C4F814280B4AC1F20003A7
:103FE00001F1100041F48011C8F80C20C4F8105BF6
:103FF000C4F8003BC4F81059C4F80039C8F8700080
:10400000A162BDE8F88F00BF90510008AFF30080B7
:10401000836E90F86610D3F8002822F4FE6040EA20
:104020000111C3F800187047AFF30080AFF30080B0
:104030002DE9F0418F1C00EB870306465B68846E18
:104040001A6802F0030002280D464FF4004854D0CD
:10405000032855D04146C1F20001C1F204080128ED
:1040600018BF88466A01A0180021C0F8101BD86844
:10407000002848D0588A05F15801490148EA000053
:1040800060504FF0010CD4F81C0805F110010CFA37
:1040900001F10143C4F81C18A21899680020C2F865
:1040A0001009002942D09A8B198A8B08012A88BFEF
:1040B0005343326F05F13F0004EB800198183067DD
:1040C00042EA0343304606EB87064B602946FFF77A
:1040D000EFFB7268108A05F148014B0140EA8551F7
:1040E00041EA0802E2500123D4F81C0803FA05F55E
:1040F0000543C4F81C58BDE8F081C1F20808B1E7D7
:10410000C1F20C08AEE705F15801490105F1100EA6
:10411000605820F4004060500121D4F81C0801FAD6
:104120000EF120EA0100C4F81C08B5E705F13F03D1
:1041300004EB83024FF48061C0F2002151603046ED
:104140002946FFF7B5FB05F148004301E25822F488
:104150000041E1500123D4F81C0803FA05F520EAD8
:104160000505C4F81C58BDE8F08100BFAFF300801E
:104170005831836E49015A5812F4004004D012F4A9
:10418000001F0CBF02200120704700BFAFF300806A
:104190004831836E49015A5812F4004004D012F499
:1041A000001F0CBF02200120704700BFAFF300804A
:1041B00000EB8101CB68186A0168436811605360A5
:1041C000704700BFAFF30080AFF30080AFF3008013
:1041D00000EB810310B4DC68806EA269638A5268C8
:1041E000541EE41800EB411142F0C042B4FBF3F35B
:1041F00042EAC340C1F8100B10BC7047AFF3008017
:1042000000EB810330B4DC68626953681361A3B1C9
:1042100069B15D1E228A806EAC18B4FBF2F200EB2D
:10422000411143EAC243C1F8103930BC7047402BFA
:10423000EFD9402353603F25ECE7806E00EB41123D
:104240004FF40021C2F81019EFE700BFAFF3008070
:104250002DE9F041856E05EB41130646D3F8084978
:10426000C3F80849E3070F4603D5D5F81028D2074D
:104270000AD4230606D50122D5F8340802FA07F736
:1042800007422BD1BDE8F08100EB8103DB685A695E
:10429000D2F804E0D2F810C0E64536D2CEEB0C03DB
:1042A0004FF000085360C2F80880FFF7A9FF2023F1
:1042B00083F3118807F14800B26E4301D15841F0F1
:1042C0000440D0500123D2F8341803FA07F30B430B
:1042D000C2F83438434683F31188CAE7202383F3B6
:1042E0001188716FD5F83438F06F394323EA070726
:1042F0007167C5F8347818B1FCF7AAFA0020F067A6
:10430000002383F31188BDE8F081B0F808E09B68D2
:10431000012202FA01F22EEA020202819847A8E77E
:1043200070B5856E6B69AC691C40E20406466C6131
:1043300031D4A10448BFD5F80818200704D5736804
:10434000DA680AB130469047E1062ED46203D5F808
:1043500018580BD5EB0759D4A8075DD4690761D469
:104360002A0765D4EB0669D4A8066DD421030BD5C2
:10437000EA0332D4AB0336D468033AD429033ED4DB
:10438000EA0223D4AB0200D470BD30460521BDE85B
:104390007040FFF75DBAFDF78BFC70680268002A79
:1043A000C7D0304600219047C3E7202383F311880C
:1043B000A969F06F21F01003AB6118B1FCF748FA5E
:1043C0000020F067002383F31188BFE70421304603
:1043D000FFF73EFAAB02D7D5D7E700213046FFF70B
:1043E00037FAAB03C8D530460121FFF731FA68032D
:1043F000C4D502213046FFF72BFA2903C0D503218B
:104400003046FFF725FAEA02BCD5DFE73046002147
:10441000FFF71EFFA807A1D501213046FFF718FFBF
:1044200069079DD502213046FFF712FF2A0799D56B
:1044300003213046FFF70CFFEB0695D530460421EB
:10444000FFF706FFA80691D530460521FFF700FFCC
:104450008CE700BFAFF30080AFF30080AFF30080C4
:1044600008B543F21030C2F20000FFF759FFBDE873
:104470000840FCF755B800BFAFF30080AFF30080F1
:1044800008B543F24010C2F20000FFF749FFBDE853
:104490000840FCF745B800BFAFF30080AFF30080E1
:1044A0005831836E49015A5842F080605850704725
:1044B00001F14802836E5201985840F00440985030
:1044C0000120D3F8342800FA01F11143C3F834185D
:1044D000704700BFAFF30080AFF30080AFF3008000
:1044E0005831836E49015A5842F4001058507047B1
:1044F0004831836E49015A5842F4001058507047B1
:104500005831836E49015A5822F4001058507047B0
:104510004831836E49015A5822F4001058507047B0
:104520004FF4A053C4F201039A8990B240F0800185
:1045300099817047AFF30080AFF30080AFF3008044
:10454000F8B5484E756FAF892C88A4B204F4807317
:1045500098B2BFB2002855D1202383F3118823409D
:104560009AB25AB928E0A9883E48C9B2FDF7A8F81E
:10457000288884B204F020039AB2EAB12307F2D06B
:1045800004F0080398B204F00202002814BF80214E
:10459000002193B214F0010F04F00404324818BF54
:1045A00041F02001A2B20BB141F040010AB141F447
:1045B0008071FCF735FBD6E7002383F3118807F001
:1045C000800188B220B104F080039AB2002A28D179
:1045D00004F04004A4B28CB1202383F31188726CE0
:1045E000B16C20488A422AD04FF6BF723A404FF64B
:1045F000BF71AA810023298083F31188BDE8F840A8
:10460000FBF78EBF202383F311884FF40071301D18
:10461000FCF706FB002383F311884FF6FF61298026
:104620009AE7202383F311881048FCF751FC0028F7
:104630000DDB81B2A980002383F31188C8E7836B67
:10464000002BD1D004301021FCF7EAFACCE7064861
:104650000821FCF7E5FA27F0C00040F04003AB81E9
:10466000E9E700BFFC340020003500202C35002095
:1046700010B543F2FC44C2F2000444F22152204639
:104680000021C0F60002FCF7E3FF4FF4A053C4F290
:104690000103636710BD00BFAFF30080AFF300807C
:1046A00038B5037A254C002918BF0C46012B054666
:1046B0002BD04FF480506B6F2168C4F2010083420D
:1046C00033D04FF4A052C4F2010293422DD04DF6E4
:1046D0008060C0F28020B0FBF1F18AB21A81A2881A
:1046E000E088218942F4045240F0400080B241F059
:1046F000010142F02C02188292B289B20020998204
:104700009A8118801A889B8838BD0D488542D0D17F
:104710004FF46051C4F2020147204A6C42F020037A
:104720004B64C021FBF754FFC3E74FF43D40C0F298
:104730000150B0FBF1F18AB21A81D0E7C0510008F4
:10474000FC340020AFF30080AFF30080AFF30080B3
:10475000FDF7BEBFAFF30080AFF30080AFF3008082
:104760000379DA1E012A0DD9062B0BD0072B09D0AD
:104770004FF40060C4F20200044B0169C1F3C02091
:1047800018707047014A1078704700BF74350020D8
:1047900000207047AFF30080AFF30080AFF30080DC
:1047A000704700BFAFF30080AFF30080AFF300802D
:1047B000F0B400F10B0C074600F10A050C46B1FB02
:1047C000F2F602FB161101F13003392BC8BF01F1DB
:1047D0003703DBB2B4FBF2F42846314605F8013961
:1047E000002CECD1C0EB0C020146B818FA43821839
:1047F000D2070AD507F8013B11F8013F05E011F88F
:10480000013F7B7011F8013F571C3A4602F8013B0B
:104810008242F4D1F0BC7047AFF30080AFF3008068
:104820002DE9F04F89B005AB0DF1150C0546C3EB32
:104830000C000293CDF804C00C46164603902746A0
:1048400017F8011B59B125290CD02B683C46274687
:1048500028469A68904717F8011B0029F3D109B040
:10486000BDE8F08F63782D2B00F07C814FF00009BC
:104870002E2B00F05E81302B00F05B814FF0200882
:104880003C46002706E03178043607EB870723789B
:1048900001EB4707A3F13002D1B201340929F4D961
:1048A0002A2BF0D02E2B00F0498100216C2B00F038
:1048B00039814C2B00F03681A3F14400342800F2FA
:1048C0002A81DFE810F01A012801280128012801B7
:1048D0001A012801280128012801280118012801AE
:1048E00028012801280128011601280128010901B1
:1048F0002801280128012801280128012801280170
:1049000028012801CD001A012801280128012801C9
:104910001A0128012801280128012801180128016D
:104920002801280135002801160128012801090164
:10493000326845F2D02AC0F6000A002A18BF924613
:1049400047F6FF709AF800300436002908BF014688
:10495000002B00F01F810AEB01009AF801306FEA8A
:104960000A010A1802F001010AF1010BD3B18345D3
:104970005B4617D079B19BF801300BF1010B8BB17D
:1049800083455B4607D10DE09BF801100BF1010B4D
:1049900041B1834506D003F1010B59785A46531CA7
:1049A0000029F1D1CAEB0B0BCBEB07074FF0200826
:1049B00027EAE777B9F1000F63D0BBF1000F27DDDD
:1049C000D146286819F8011B8368D3446FEA0A0AA4
:1049D0000BEB0A02284602F0010A9847D94517D086
:1049E000BAF1000F03D0286819F8011B0BE0286802
:1049F000CA4682681AF8011B28469047286899F829
:104A000001100AF10109836828469847D945EED17B
:104A1000002F3FF414AF29687B1E8A681F46284682
:104A2000414603F001099047002F3FF408AFB9F168
:104A3000000F07D0296828468B6841469847013FF8
:104A40003FF4FDAE286841468268284690472968B1
:104A5000013F8B68284641469847013FF2D1EEE678
:104A60003068DDF80CB08DF8140004364FF02008E3
:104A70000DF1140ACBEB070727EAE777B9F1000F2E
:104A80009BD17F42002F98D09AF800102D296ED02C
:104A9000296828468A6841466FEA07099047013726
:104AA00009F0010989D0B9F1000F07D02B68284619
:104AB0009A684146904701373FF47FAF28684146E6
:104AC000836828469847296801378A6828464146FE
:104AD00090470137F2D170E71022316805A8FFF73F
:104AE00067FEDDF808C004360DF1140ACCEB000BAC
:104AF000C0E70A22F1E70822EFE73168043600290F
:104B000041DB05A80A22FFF753FE029B0DF1140AB0
:104B1000C3EB000BAEE78DF81430DDF80CB00DF1EF
:104B2000140AA7E72278002A3FF4C6AE01341346E0
:104B3000C2E67B784FF030080137A1E6204600211D
:104B400005E03278043601EB810402EB440110F8F1
:104B5000013BA3F13004E2B2092A0446F3D92A2B1F
:104B6000EFD0A3E6A71CA3784FF0010980E6B8F1C7
:104B7000300F8DD12A682846936898470AF1010AB8
:104B80000BF1FF3B84E72D228DF8142049420DF1F3
:104B90001500B7E79B464FF020086BE7AFF30080A6
:104BA000704700BFAFF30080AFF30080AFF3008029
:104BB000022906D0032906D00748012918BF002082
:104BC000704706487047032A03D8054800EBC20027
:104BD00070470020704700BFE05300086054000891
:104BE000C0530008AFF30080AFF30080AFF3008044
:104BF00008B5044B044A986982614FF47A70FBF758
:104C000077FFFAE74009002070540008AFF30080F6
:104C1000022938B50C46054611D1202383F31188AB
:104C20000121074AFCF7B4FF28462146054AFCF754
:104C3000AFFF0548FCF764FE002383F3118838BDFD
:104C4000D0540008A0540008F4380020AFF30080CE
:104C50000EB400B582B004AB43F6F40045F28041D7
:104C6000C2F20000C0F600011A460193FFF7D8FD1A
:104C700002B05DF804EB03B0704700BFAFF30080F3
:104C80002DE9F84F294B2A4A98692A4E2A4C2B4D78
:104C9000DFF8BC80DFF8ACB0DFF8B8A0826142F288
:104CA0009509C0F64F1904E00A214FF0FF30FBF7D9
:104CB000C7FFD4F854120F683B78042BF4D1306846
:104CC0002F6858F820E01E491E4A1F480123CEEBEA
:104CD000070CC5F800C0FCF723FABBF800103268D7
:104CE0002B68A1F23A77002FB8BF7F42501CFB1807
:104CF000DB2848F822702B6010D843F27851C2F2BA
:104D0000000108609B08A9FB031047083A460A48BF
:104D10000E49CAF80070FFF79BFFC5E743F27857CA
:104D2000C2F2000700223A60ECE700BF4009002011
:104D30008854000878350020F43800207C350020A5
:104D4000F053000880350020100A0020805400082D
:104D500084350020603B0020AFF30080AFF300807B
:104D60000F2A2DE9F00340F2958041EA00039B07EA
:104D700040F092800C6804604D6845608E68A2F136
:104D800010038660CC681D460F2DC460C3F3001667
:104D900001F1100400F1100322D966B126681E60EB
:104DA00066685E60A6689E60E668103DDE6010344E
:104DB00010330F2D14D926681E6066685E60A668E1
:104DC0009E60E668DE6026691E6166695E61A669AE
:104DD0009E61E669203DDE61203420330F2DEAD844
:104DE000A2F1100323F00F0402F00F031034032B81
:104DF00000EB0408214451D9A3F104090B464FEA02
:104E0000990901EB890C53F8046BC1EB0C0544467E
:104E10000CF1040C634544F8046BC5F3800512D013
:104E20002DB153F8045B634544F8045B0BD01E4678
:104E3000254656F8047B45F8047B5F68331D6760A0
:104E40002C1D6345F3D109F101039C00091902F0FF
:104E500003024444DAB123460D7803F8015BA2183B
:104E6000E4431419934204F0010410D02CB111F85A
:104E7000014F03F8014B934209D04D781C4604F8CA
:104E8000015B8D785D70631C02319342F5D1BDE802
:104E9000F00370470446DDE70446DCE744461A4663
:104EA000D8E700BF00000000000000000000000084
:104EB000F0B48407034600F08E80541E002A00F0F0
:104EC0008880E507CEB211D41A46671E02F8016B3E
:104ED0001346154692070FD0002C7AD003F8016BC9
:104EE0009A073C461D4607D0013CEDE7034603F810
:104EF000016B9A071D46F7D1032C52D9CEB246EA70
:104F000006270F2C47EA07432DD9A4F110021746B4
:104F10000F2FC2F300162B606B60AB60EB6005F1E6
:104F2000100216D93EB1103F136053609360D360F6
:104F300010320F2F0DD9203F02F11006136053607D
:104F40009360D360136153619361D36120320F2F5B
:104F5000F1D8A4F1100222F00F0204F00F04103275
:104F6000032C15441DD9271F3E462A46032E42F81E
:104F7000043BC7F380070DD927B1043E032E42F846
:104F8000043B07D91746083E47F8043B53603A1DD7
:104F9000032EF7D8231F23F00302131D04F003048C
:104FA000ED18B4B12B46C9B203F8011B2C19ED431F
:104FB0006219A34202F001050BD01DB103F8011BD9
:104FC000A34206D01A4602F8011B5970531CA34293
:104FD000F8D1F0BC7047054614468DE7000000008C
:104FE00069646C6500000000000000000000000023
:104FF0006D61696E00168511040448080C101418C0
:10500000001C1D1E1F20000000000000000000000A
:105010006147000891470008111200082115000897
:10502000A11400087114000851140008F1110008BF
:10503000F1150008D11500083116000811160008F6
:105040002116000801160008E1150008C115000826
:1050500001180008E117000841180008211800088D
:105060003118000811180008F1170008D1170008BE
:105070000000000000000000000000000000000030
:105080000000000000000000000000000000000020
:10509000010000000000000000000000000000000F
:1050A000106002400860024000000B0028600240CF
:1050B0000860024006010C004060024008600240A7
:1050C00010020D00586002400860024016030E00F6
:1050D000706002400C60024000040F0088600240D3
:1050E0000C60024006051000A06002400C60024007
:1050F00010061100B86002400C60024016072F0035
:10510000106402400864024000083800286402402D
:105110000864024006093900406402400864024005
:10512000100A3A005864024008640240160B3B0023
:10513000706402400C640240000C3C008864024031
:105140000C640240060D4400A06402400C6402405E
:10515000100E4500B86402400C640240160F460071
:10516000800000004001000003000000000000007B
:105170000001000000040000050000000000000025
:105180007573625F6C6C645F70756D700000000019
:1051900000000000E11C000801200008C1200008F8
:1051A00040004000E0340020E03400200100000016
:1051B000F4340020000000000000000000000000A7
:1051C0000096000000000040000000000000000009
:1051D0002880A1AA00000000FFFFFFFF00150820A3
:1051E000FFFF0000B00B00B000AA0A0081022AA253
:1051F00000030000FFFFFFFF00544008FFFF000016
:105200000000000044050CCCA8AAAA06000000007B
:10521000FFFFFFFF01000000FFFF0000B055BB884B
:10522000CCCC0C002000000000000000FFFFFFFFBE
:1052300045555555FFFF0000000C00000000000020
:105240000000000000000000FFFFFFFF555555550E
:10525000FFFF000000000000000000000000000050
:1052600000000000FFFFFFFF55551555FFFF000030
:105270000000000000000000000090280000000076
:10528000FFFFFFFF55550541FFFF00000000000034
:1052900000B0B00B0000000000000000FFFFFFFFA7
:1052A00050555555FFFF00000000000000000000B1
:1052B0000000000000000000FFFFFFFF555555559E
:1052C000FFFF0000000000000000000000000000E0
:1052D000286E756C6C2900000000000000000000C2
:1052E00009024300020100C0320904000001020269
:1052F000010005240010010524010001042402021C
:105300000524060001070582030800FF09040100C7
:10531000020A0000000705010240000007058102A3
:10532000400000000000000000000000000000003D
:105330000403090400000000000000000000000059
:105340002603530054004D006900630072006F0093
:1053500065006C0065006300740072006F006E00F1
:1053600069006300730000000000000000000000FE
:105370003803430068006900620069004F00530071
:105380002F00520054002000560069007200740083
:10539000750061006C00200043004F004D002000AC
:1053A00050006F0072007400000000000000000058
:1053B0000803320036003500000000000000000045
:1053C000040000003053000826000000405300088D
:1053D000380000007053000808000000B0530008B7
:1053E000120000004054000800000000000000000F
:1053F0000000010000000000A14B000800000000B8
:10540000000000400000000000000000000000005C
:10541000000000000A000000000000000000000082
:1054200040310020010102000000000000000000E7
:10543000114C0008B14B0008511900080000000091
:1054400012011001020000408304405700020102D3
:105450000301000000000000000000000000000048
:1054600043000000E05200080000000000000000BF
:105470005265616465722054687265616400000061
:1054800025750A0D00000000456E67696E652054A1
:105490006872656164000000000000000000000008
:1054A0000300000000000000711A00080000000066
:1054B000100000004C3B0020000000000100000034
:1054C00000000000000000000000000000000000DC
:1054D000020000000000000091190008011A0008F5
:1054E00040004000743B0020643B002002000000AC
:0454F00000000000B8
:0854F80000960000000008000E
:04000005080002C12C
:00000001FF
